{
    "contractName": "ScytheEnter",
    "abi": [
        {
            "inputs": [
                {
                    "internalType": "contract IUniswapV2RouterLean",
                    "name": "_router",
                    "type": "address"
                },
                {
                    "internalType": "contract ScytheLock",
                    "name": "_scytheLock",
                    "type": "address"
                },
                {
                    "internalType": "contract IERC20",
                    "name": "_scytheToken",
                    "type": "address"
                },
                {
                    "internalType": "uint256",
                    "name": "_halving",
                    "type": "uint256"
                }
            ],
            "stateMutability": "nonpayable",
            "type": "constructor"
        },
        {
            "anonymous": false,
            "inputs": [
                {
                    "indexed": true,
                    "internalType": "address",
                    "name": "previousOwner",
                    "type": "address"
                },
                {
                    "indexed": true,
                    "internalType": "address",
                    "name": "newOwner",
                    "type": "address"
                }
            ],
            "name": "OwnershipTransferred",
            "type": "event"
        },
        {
            "inputs": [
                {
                    "internalType": "contract IUniswapV2RouterLean",
                    "name": "_router",
                    "type": "address"
                }
            ],
            "name": "changeRouter",
            "outputs": [],
            "stateMutability": "nonpayable",
            "type": "function"
        },
        {
            "inputs": [
                {
                    "internalType": "uint256",
                    "name": "_amount",
                    "type": "uint256"
                },
                {
                    "internalType": "address",
                    "name": "_to",
                    "type": "address"
                }
            ],
            "name": "deposit",
            "outputs": [],
            "stateMutability": "nonpayable",
            "type": "function"
        },
        {
            "inputs": [
                {
                    "internalType": "uint256",
                    "name": "_amountOutMin",
                    "type": "uint256"
                },
                {
                    "internalType": "address",
                    "name": "_to",
                    "type": "address"
                }
            ],
            "name": "depositETH",
            "outputs": [],
            "stateMutability": "payable",
            "type": "function"
        },
        {
            "inputs": [
                {
                    "internalType": "uint256",
                    "name": "_amount",
                    "type": "uint256"
                },
                {
                    "internalType": "address",
                    "name": "_to",
                    "type": "address"
                }
            ],
            "name": "depositWant",
            "outputs": [],
            "stateMutability": "nonpayable",
            "type": "function"
        },
        {
            "inputs": [
                {
                    "internalType": "uint256",
                    "name": "_share",
                    "type": "uint256"
                }
            ],
            "name": "estETHFromShare",
            "outputs": [
                {
                    "internalType": "uint256",
                    "name": "what",
                    "type": "uint256"
                }
            ],
            "stateMutability": "view",
            "type": "function"
        },
        {
            "inputs": [
                {
                    "internalType": "uint256",
                    "name": "_share",
                    "type": "uint256"
                },
                {
                    "internalType": "address",
                    "name": "token1",
                    "type": "address"
                },
                {
                    "internalType": "address",
                    "name": "token2",
                    "type": "address"
                }
            ],
            "name": "estTokensFromShareLP",
            "outputs": [
                {
                    "internalType": "uint256",
                    "name": "t1",
                    "type": "uint256"
                },
                {
                    "internalType": "uint256",
                    "name": "t2",
                    "type": "uint256"
                }
            ],
            "stateMutability": "view",
            "type": "function"
        },
        {
            "inputs": [
                {
                    "internalType": "uint256",
                    "name": "_amount",
                    "type": "uint256"
                }
            ],
            "name": "estimateDepositETH",
            "outputs": [
                {
                    "internalType": "uint256",
                    "name": "",
                    "type": "uint256"
                }
            ],
            "stateMutability": "view",
            "type": "function"
        },
        {
            "inputs": [
                {
                    "internalType": "uint256",
                    "name": "_amount",
                    "type": "uint256"
                }
            ],
            "name": "estimateDepositETHScythe",
            "outputs": [
                {
                    "internalType": "uint256",
                    "name": "",
                    "type": "uint256"
                }
            ],
            "stateMutability": "view",
            "type": "function"
        },
        {
            "inputs": [
                {
                    "internalType": "uint256",
                    "name": "_amount",
                    "type": "uint256"
                }
            ],
            "name": "estimateDepositWant",
            "outputs": [
                {
                    "internalType": "uint256",
                    "name": "",
                    "type": "uint256"
                }
            ],
            "stateMutability": "view",
            "type": "function"
        },
        {
            "inputs": [
                {
                    "internalType": "uint256",
                    "name": "_amount",
                    "type": "uint256"
                }
            ],
            "name": "estimateDepositWantScythe",
            "outputs": [
                {
                    "internalType": "uint256",
                    "name": "",
                    "type": "uint256"
                }
            ],
            "stateMutability": "view",
            "type": "function"
        },
        {
            "inputs": [
                {
                    "internalType": "uint256",
                    "name": "_amount",
                    "type": "uint256"
                }
            ],
            "name": "estimateSwap",
            "outputs": [
                {
                    "internalType": "uint256",
                    "name": "",
                    "type": "uint256"
                }
            ],
            "stateMutability": "view",
            "type": "function"
        },
        {
            "inputs": [
                {
                    "internalType": "uint256",
                    "name": "value",
                    "type": "uint256"
                },
                {
                    "internalType": "uint256",
                    "name": "t",
                    "type": "uint256"
                },
                {
                    "internalType": "uint256",
                    "name": "halfLife",
                    "type": "uint256"
                }
            ],
            "name": "getDecay",
            "outputs": [
                {
                    "internalType": "uint256",
                    "name": "decayed",
                    "type": "uint256"
                }
            ],
            "stateMutability": "pure",
            "type": "function"
        },
        {
            "inputs": [
                {
                    "internalType": "uint256",
                    "name": "_deposit",
                    "type": "uint256"
                }
            ],
            "name": "getScytheRewards",
            "outputs": [
                {
                    "internalType": "uint256",
                    "name": "scythe",
                    "type": "uint256"
                }
            ],
            "stateMutability": "view",
            "type": "function"
        },
        {
            "inputs": [],
            "name": "halving",
            "outputs": [
                {
                    "internalType": "uint256",
                    "name": "",
                    "type": "uint256"
                }
            ],
            "stateMutability": "view",
            "type": "function"
        },
        {
            "inputs": [],
            "name": "owner",
            "outputs": [
                {
                    "internalType": "address",
                    "name": "",
                    "type": "address"
                }
            ],
            "stateMutability": "view",
            "type": "function"
        },
        {
            "inputs": [],
            "name": "renounceOwnership",
            "outputs": [],
            "stateMutability": "nonpayable",
            "type": "function"
        },
        {
            "inputs": [
                {
                    "internalType": "uint256",
                    "name": "",
                    "type": "uint256"
                }
            ],
            "name": "route",
            "outputs": [
                {
                    "internalType": "address",
                    "name": "",
                    "type": "address"
                }
            ],
            "stateMutability": "view",
            "type": "function"
        },
        {
            "inputs": [
                {
                    "internalType": "uint256",
                    "name": "",
                    "type": "uint256"
                }
            ],
            "name": "route2",
            "outputs": [
                {
                    "internalType": "address",
                    "name": "",
                    "type": "address"
                }
            ],
            "stateMutability": "view",
            "type": "function"
        },
        {
            "inputs": [],
            "name": "router",
            "outputs": [
                {
                    "internalType": "contract IUniswapV2RouterLean",
                    "name": "",
                    "type": "address"
                }
            ],
            "stateMutability": "view",
            "type": "function"
        },
        {
            "inputs": [],
            "name": "scytheLock",
            "outputs": [
                {
                    "internalType": "contract ScytheLock",
                    "name": "",
                    "type": "address"
                }
            ],
            "stateMutability": "view",
            "type": "function"
        },
        {
            "inputs": [],
            "name": "scytheToken",
            "outputs": [
                {
                    "internalType": "contract IERC20",
                    "name": "",
                    "type": "address"
                }
            ],
            "stateMutability": "view",
            "type": "function"
        },
        {
            "inputs": [
                {
                    "internalType": "address",
                    "name": "newOwner",
                    "type": "address"
                }
            ],
            "name": "transferOwnership",
            "outputs": [],
            "stateMutability": "nonpayable",
            "type": "function"
        },
        {
            "inputs": [],
            "name": "vault",
            "outputs": [
                {
                    "internalType": "contract IVaultLean",
                    "name": "",
                    "type": "address"
                }
            ],
            "stateMutability": "view",
            "type": "function"
        },
        {
            "inputs": [],
            "name": "want",
            "outputs": [
                {
                    "internalType": "contract IERC20",
                    "name": "",
                    "type": "address"
                }
            ],
            "stateMutability": "view",
            "type": "function"
        },
        {
            "inputs": [
                {
                    "internalType": "uint256",
                    "name": "_share",
                    "type": "uint256"
                },
                {
                    "internalType": "uint256",
                    "name": "_amountOutMin",
                    "type": "uint256"
                },
                {
                    "internalType": "address",
                    "name": "_to",
                    "type": "address"
                }
            ],
            "name": "withdrawETH",
            "outputs": [],
            "stateMutability": "nonpayable",
            "type": "function"
        },
        {
            "inputs": [],
            "name": "withdrawScythe",
            "outputs": [],
            "stateMutability": "nonpayable",
            "type": "function"
        }
    ],
    "bytecode": "60a06040523480156200001157600080fd5b50604051620031c9380380620031c98339810160408190526200003491620009d1565b6200003f33620004d6565b60018055600280546001600160a01b038087166001600160a01b03199283161790925560038054868416908316811790915560068054938616939092169290921790556040805163fbfa77cf60e01b8152905163fbfa77cf91600480820192602092909190829003018186803b158015620000b957600080fd5b505afa158015620000ce573d6000803e3d6000fd5b505050506040513d601f19601f82011682018060405250810190620000f4919062000989565b600480546001600160a01b0319166001600160a01b0392831617815560035460408051631f1fcd5160e01b815290519190931692631f1fcd519281810192602092909190829003018186803b1580156200014d57600080fd5b505afa15801562000162573d6000803e3d6000fd5b505050506040513d601f19601f8201168201806040525081019062000188919062000989565b600580546001600160a01b0319166001600160a01b03928316908117909155600454620001c5921660001962000526602090811b62001cb317901c565b600354600454620001f2916001600160a01b03918216911660001962000526602090811b62001cb317901c565b6002546005546200021f916001600160a01b03918216911660001962000526602090811b62001cb317901c565b6040805160028082526060820183529091602083019080368337505081516200025092600792506020019062000908565b50600260009054906101000a90046001600160a01b03166001600160a01b031663ad5c46486040518163ffffffff1660e01b815260040160206040518083038186803b158015620002a057600080fd5b505afa158015620002b5573d6000803e3d6000fd5b505050506040513d601f19601f82011682018060405250810190620002db919062000989565b6007600081548110620002fe57634e487b7160e01b600052603260045260246000fd5b600091825260209091200180546001600160a01b0319166001600160a01b039283161790556005546007805491909216919060019081106200035057634e487b7160e01b600052603260045260246000fd5b600091825260209091200180546001600160a01b03929092166001600160a01b0319909216919091179055604080516002808252606082019092529081602001602082028036833750508151620003af92600892506020019062000908565b50600554600880546001600160a01b0390921691600090620003e157634e487b7160e01b600052603260045260246000fd5b60009182526020918290200180546001600160a01b0319166001600160a01b03938416179055600254604080516315ab88c960e31b81529051919093169263ad5c4648926004808301939192829003018186803b1580156200044257600080fd5b505afa15801562000457573d6000803e3d6000fd5b505050506040513d601f19601f820116820180604052508101906200047d919062000989565b6008600181548110620004a057634e487b7160e01b600052603260045260246000fd5b600091825260209091200180546001600160a01b0319166001600160a01b03929092169190911790556080525062000ae2915050565b600080546001600160a01b038381166001600160a01b0319831681178455604051919092169283917f8be0079c531659141344cd1fd0a4f28419497f9722a3daafe3b4186f6b6457e09190a35050565b801580620005b45750604051636eb1769f60e11b81523060048201526001600160a01b03838116602483015284169063dd62ed3e9060440160206040518083038186803b1580156200057757600080fd5b505afa1580156200058c573d6000803e3d6000fd5b505050506040513d601f19601f82011682018060405250810190620005b2919062000a2a565b155b6200062c5760405162461bcd60e51b815260206004820152603660248201527f5361666545524332303a20617070726f76652066726f6d206e6f6e2d7a65726f60448201527f20746f206e6f6e2d7a65726f20616c6c6f77616e63650000000000000000000060648201526084015b60405180910390fd5b604080516001600160a01b038416602482015260448082018490528251808303909101815260649091019091526020810180516001600160e01b0390811663095ea7b360e01b17909152620006849185916200068916565b505050565b6000620006e5826040518060400160405280602081526020017f5361666545524332303a206c6f772d6c6576656c2063616c6c206661696c6564815250856001600160a01b03166200076760201b62001df9179092919060201c565b805190915015620006845780806020019051810190620007069190620009af565b620006845760405162461bcd60e51b815260206004820152602a60248201527f5361666545524332303a204552433230206f7065726174696f6e20646964206e6044820152691bdd081cdd58d8d9595960b21b606482015260840162000623565b606062000778848460008562000780565b949350505050565b606082471015620007e35760405162461bcd60e51b815260206004820152602660248201527f416464726573733a20696e73756666696369656e742062616c616e636520666f6044820152651c8818d85b1b60d21b606482015260840162000623565b600080866001600160a01b0316858760405162000801919062000a43565b60006040518083038185875af1925050503d806000811462000840576040519150601f19603f3d011682016040523d82523d6000602084013e62000845565b606091505b509092509050620008598783838762000864565b979650505050505050565b60608315620008d5578251620008cd576001600160a01b0385163b620008cd5760405162461bcd60e51b815260206004820152601d60248201527f416464726573733a2063616c6c20746f206e6f6e2d636f6e7472616374000000604482015260640162000623565b508162000778565b620007788383815115620008ec5781518083602001fd5b8060405162461bcd60e51b815260040162000623919062000a61565b82805482825590600052602060002090810192821562000960579160200282015b828111156200096057825182546001600160a01b0319166001600160a01b0390911617825560209092019160019091019062000929565b506200096e92915062000972565b5090565b5b808211156200096e576000815560010162000973565b6000602082840312156200099b578081fd5b8151620009a88162000ac9565b9392505050565b600060208284031215620009c1578081fd5b81518015158114620009a8578182fd5b60008060008060808587031215620009e7578283fd5b8451620009f48162000ac9565b602086015190945062000a078162000ac9565b604086015190935062000a1a8162000ac9565b6060959095015193969295505050565b60006020828403121562000a3c578081fd5b5051919050565b6000825162000a5781846020870162000a96565b9190910192915050565b602081526000825180602084015262000a8281604085016020870162000a96565b601f01601f19169190910160400192915050565b60005b8381101562000ab357818101518382015260200162000a99565b8381111562000ac3576000848401525b50505050565b6001600160a01b038116811462000adf57600080fd5b50565b6080516126c462000b05600039600081816103e001526115bc01526126c46000f3fe6080604052600436106101815760003560e01c80638da5cb5b116100d1578063d29c38aa1161008a578063f887ea4011610064578063f887ea4014610477578063fb276c1014610497578063fbfa77cf146104b7578063fdbd4137146104d757600080fd5b8063d29c38aa14610402578063d93b501214610422578063f2fde38b1461045757600080fd5b80638da5cb5b14610330578063a588e03f1461034e578063b980c78f1461036e578063bb5c207b1461038e578063c391f285146103ae578063c8df245a146103ce57600080fd5b8063522ec6041161013e5780636a41a61b116101185780636a41a61b146102bb5780636e553f65146102db57806371376d3a146102fb578063715018a61461031b57600080fd5b8063522ec6041461026857806356150edf146102885780635d9c06cf1461029b57600080fd5b806316decd09146101865780631f1fcd51146101c35780632dd887b6146101e3578063340ac20f1461021157806334af69501461023357806345340b4814610248575b600080fd5b34801561019257600080fd5b506003546101a6906001600160a01b031681565b6040516001600160a01b0390911681526020015b60405180910390f35b3480156101cf57600080fd5b506005546101a6906001600160a01b031681565b3480156101ef57600080fd5b506102036101fe366004612392565b6104f7565b6040519081526020016101ba565b34801561021d57600080fd5b5061023161022c36600461227a565b6105b6565b005b34801561023f57600080fd5b50610231610879565b34801561025457600080fd5b50610203610263366004612392565b610987565b34801561027457600080fd5b506101a6610283366004612392565b610ace565b6102316102963660046123c2565b610af8565b3480156102a757600080fd5b506102316102b63660046123c2565b610d21565b3480156102c757600080fd5b506102316102d6366004612432565b610f0b565b3480156102e757600080fd5b506102316102f63660046123c2565b611200565b34801561030757600080fd5b50610203610316366004612392565b61130d565b34801561032757600080fd5b506102316114fc565b34801561033c57600080fd5b506000546001600160a01b03166101a6565b34801561035a57600080fd5b50610203610369366004612392565b611510565b34801561037a57600080fd5b506101a6610389366004612392565b611524565b34801561039a57600080fd5b506006546101a6906001600160a01b031681565b3480156103ba57600080fd5b506102036103c9366004612392565b611534565b3480156103da57600080fd5b506102037f000000000000000000000000000000000000000000000000000000000000000081565b34801561040e57600080fd5b5061020361041d366004612392565b6115e7565b34801561042e57600080fd5b5061044261043d3660046123f1565b611681565b604080519283526020830191909152016101ba565b34801561046357600080fd5b5061023161047236600461227a565b611be2565b34801561048357600080fd5b506002546101a6906001600160a01b031681565b3480156104a357600080fd5b506102036104b236600461245f565b611c5d565b3480156104c357600080fd5b506004546101a6906001600160a01b031681565b3480156104e357600080fd5b506102036104f2366004612392565b611ca5565b60025460405163d06ca61f60e01b815260009182916001600160a01b039091169063d06ca61f9061052f90869060079060040161251f565b60006040518083038186803b15801561054757600080fd5b505afa15801561055b573d6000803e3d6000fd5b505050506040513d6000823e601f3d908101601f1916820160405261058391908101906122b2565b9050806001815181106105a657634e487b7160e01b600052603260045260246000fd5b6020026020010151915050919050565b6105be611e08565b600280546001600160a01b0319166001600160a01b03831617815560408051828152606081018252919060208301908036833750508151610606926007925060200190612200565b50600260009054906101000a90046001600160a01b03166001600160a01b031663ad5c46486040518163ffffffff1660e01b815260040160206040518083038186803b15801561065557600080fd5b505afa158015610669573d6000803e3d6000fd5b505050506040513d601f19601f8201168201806040525081019061068d9190612296565b60076000815481106106af57634e487b7160e01b600052603260045260246000fd5b600091825260209091200180546001600160a01b0319166001600160a01b0392831617905560055460078054919092169190600190811061070057634e487b7160e01b600052603260045260246000fd5b600091825260209091200180546001600160a01b03929092166001600160a01b031990921691909117905560408051600280825260608201909252908160200160208202803683375050815161075d926008925060200190612200565b50600554600880546001600160a01b039092169160009061078e57634e487b7160e01b600052603260045260246000fd5b60009182526020918290200180546001600160a01b0319166001600160a01b03938416179055600254604080516315ab88c960e31b81529051919093169263ad5c4648926004808301939192829003018186803b1580156107ee57600080fd5b505afa158015610802573d6000803e3d6000fd5b505050506040513d601f19601f820116820180604052508101906108269190612296565b600860018154811061084857634e487b7160e01b600052603260045260246000fd5b9060005260206000200160006101000a8154816001600160a01b0302191690836001600160a01b0316021790555050565b610881611e08565b6006546040516370a0823160e01b81523060048201526001600160a01b039091169063a9059cbb90339083906370a082319060240160206040518083038186803b1580156108ce57600080fd5b505afa1580156108e2573d6000803e3d6000fd5b505050506040513d601f19601f8201168201806040525081019061090691906123aa565b6040516001600160e01b031960e085901b1681526001600160a01b0390921660048301526024820152604401602060405180830381600087803b15801561094c57600080fd5b505af1158015610960573d6000803e3d6000fd5b505050506040513d601f19601f820116820180604052508101906109849190612372565b50565b6002546004805460408051631df1ee3f60e21b8152905160009485946001600160a01b039182169463d06ca61f94670de0b6b3a76400009493909116926377c7b8fc92828101926020929190829003018186803b1580156109e757600080fd5b505afa1580156109fb573d6000803e3d6000fd5b505050506040513d601f19601f82011682018060405250810190610a1f91906123aa565b60035460405163a4cfb52560e01b8152600481018990526001600160a01b039091169063a4cfb5259060240160206040518083038186803b158015610a6357600080fd5b505afa158015610a77573d6000803e3d6000fd5b505050506040513d601f19601f82011682018060405250810190610a9b91906123aa565b610aa591906125bd565b610aaf91906125a9565b60086040518363ffffffff1660e01b815260040161052f92919061251f565b60088181548110610ade57600080fd5b6000918252602090912001546001600160a01b0316905081565b610b00611e62565b600254604051637ff36ab560e01b81526000916001600160a01b031690637ff36ab5903490610b3a90879060079030904290600401612538565b6000604051808303818588803b158015610b5357600080fd5b505af1158015610b67573d6000803e3d6000fd5b50505050506040513d6000823e601f3d908101601f19168201604052610b9091908101906122b2565b60045481519192506001600160a01b03169063b6b55f259083906001908110610bc957634e487b7160e01b600052603260045260246000fd5b60200260200101516040518263ffffffff1660e01b8152600401610bef91815260200190565b600060405180830381600087803b158015610c0957600080fd5b505af1158015610c1d573d6000803e3d6000fd5b5050600480546040516370a0823160e01b81523092810192909252600093506001600160a01b031691506370a082319060240160206040518083038186803b158015610c6857600080fd5b505afa158015610c7c573d6000803e3d6000fd5b505050506040513d601f19601f82011682018060405250810190610ca091906123aa565b9050610cac8184611ebc565b600354604051636e553f6560e01b8152600481018390526001600160a01b03858116602483015290911690636e553f6590604401600060405180830381600087803b158015610cfa57600080fd5b505af1158015610d0e573d6000803e3d6000fd5b505050505050610d1d60018055565b5050565b610d29611e62565b6005546040516323b872dd60e01b8152336004820152306024820152604481018490526001600160a01b03909116906323b872dd90606401602060405180830381600087803b158015610d7b57600080fd5b505af1158015610d8f573d6000803e3d6000fd5b505050506040513d601f19601f82011682018060405250810190610db39190612372565b506004805460405163b6b55f2560e01b81529182018490526001600160a01b03169063b6b55f2590602401600060405180830381600087803b158015610df857600080fd5b505af1158015610e0c573d6000803e3d6000fd5b5050600480546040516370a0823160e01b81523092810192909252600093506001600160a01b031691506370a082319060240160206040518083038186803b158015610e5757600080fd5b505afa158015610e6b573d6000803e3d6000fd5b505050506040513d601f19601f82011682018060405250810190610e8f91906123aa565b9050610e9b8183611ebc565b600354604051636e553f6560e01b8152600481018390526001600160a01b03848116602483015290911690636e553f6590604401600060405180830381600087803b158015610ee957600080fd5b505af1158015610efd573d6000803e3d6000fd5b5050505050610d1d60018055565b610f13611e62565b600480546040516323b872dd60e01b81523392810192909252306024830152604482018590526001600160a01b0316906323b872dd90606401602060405180830381600087803b158015610f6657600080fd5b505af1158015610f7a573d6000803e3d6000fd5b505050506040513d601f19601f82011682018060405250810190610f9e9190612372565b50600480546040516370a0823160e01b815230928101929092526001600160a01b031690632e1a7d4d9082906370a082319060240160206040518083038186803b158015610feb57600080fd5b505afa158015610fff573d6000803e3d6000fd5b505050506040513d601f19601f8201168201806040525081019061102391906123aa565b6040518263ffffffff1660e01b815260040161104191815260200190565b600060405180830381600087803b15801561105b57600080fd5b505af115801561106f573d6000803e3d6000fd5b505060025460035460408051631f1fcd5160e01b815290516001600160a01b0393841695506318cbafe594509190921691631f1fcd51916004808301926020929190829003018186803b1580156110c557600080fd5b505afa1580156110d9573d6000803e3d6000fd5b505050506040513d601f19601f820116820180604052508101906110fd9190612296565b6040516370a0823160e01b81523060048201526001600160a01b0391909116906370a082319060240160206040518083038186803b15801561113e57600080fd5b505afa158015611152573d6000803e3d6000fd5b505050506040513d601f19601f8201168201806040525081019061117691906123aa565b84600885426040518663ffffffff1660e01b815260040161119b95949392919061256d565b600060405180830381600087803b1580156111b557600080fd5b505af11580156111c9573d6000803e3d6000fd5b505050506040513d6000823e601f3d908101601f191682016040526111f191908101906122b2565b506111fb60018055565b505050565b611208611e62565b600480546040516323b872dd60e01b81523392810192909252306024830152604482018490526001600160a01b0316906323b872dd90606401602060405180830381600087803b15801561125b57600080fd5b505af115801561126f573d6000803e3d6000fd5b505050506040513d601f19601f820116820180604052508101906112939190612372565b5061129e8282611ebc565b600354604051636e553f6560e01b8152600481018490526001600160a01b03838116602483015290911690636e553f6590604401600060405180830381600087803b1580156112ec57600080fd5b505af1158015611300573d6000803e3d6000fd5b50505050610d1d60018055565b6004805460408051631df1ee3f60e21b8152905160009384936001600160a01b0316926377c7b8fc9281830192602092829003018186803b15801561135157600080fd5b505afa158015611365573d6000803e3d6000fd5b505050506040513d601f19601f8201168201806040525081019061138991906123aa565b61139b84670de0b6b3a76400006125bd565b6113a591906125a9565b90506000612710600360009054906101000a90046001600160a01b03166001600160a01b031663f8ec69116040518163ffffffff1660e01b815260040160206040518083038186803b1580156113fa57600080fd5b505afa15801561140e573d6000803e3d6000fd5b505050506040513d601f19601f8201168201806040525081019061143291906123aa565b61143c90846125bd565b61144691906125a9565b9050600360009054906101000a90046001600160a01b03166001600160a01b03166377c7b8fc6040518163ffffffff1660e01b815260040160206040518083038186803b15801561149657600080fd5b505afa1580156114aa573d6000803e3d6000fd5b505050506040513d601f19601f820116820180604052508101906114ce91906123aa565b6114d882846125dc565b6114ea90670de0b6b3a76400006125bd565b6114f491906125a9565b949350505050565b611504611e08565b61150e6000611f55565b565b600061151e610316836104f7565b92915050565b60078181548110610ade57600080fd5b6006546040516370a0823160e01b81523060048201526000916001600160a01b0316906370a082319060240160206040518083038186803b15801561157857600080fd5b505afa15801561158c573d6000803e3d6000fd5b505050506040513d601f19601f820116820180604052508101906115b091906123aa565b905061151e6115e082847f0000000000000000000000000000000000000000000000000000000000000000611c5d565b8290611fa5565b6004805460408051631df1ee3f60e21b8152905160009361151e936001600160a01b0316926377c7b8fc9281830192602092829003018186803b15801561162d57600080fd5b505afa158015611641573d6000803e3d6000fd5b505050506040513d601f19601f8201168201806040525081019061166591906123aa565b61167784670de0b6b3a76400006125bd565b6103c991906125a9565b6000806000670de0b6b3a7640000600460009054906101000a90046001600160a01b03166001600160a01b03166377c7b8fc6040518163ffffffff1660e01b815260040160206040518083038186803b1580156116dd57600080fd5b505afa1580156116f1573d6000803e3d6000fd5b505050506040513d601f19601f8201168201806040525081019061171591906123aa565b60035460405163a4cfb52560e01b8152600481018a90526001600160a01b039091169063a4cfb5259060240160206040518083038186803b15801561175957600080fd5b505afa15801561176d573d6000803e3d6000fd5b505050506040513d601f19601f8201168201806040525081019061179191906123aa565b61179b91906125bd565b6117a591906125a9565b9050600460009054906101000a90046001600160a01b03166001600160a01b0316631f1fcd516040518163ffffffff1660e01b815260040160206040518083038186803b1580156117f557600080fd5b505afa158015611809573d6000803e3d6000fd5b505050506040513d601f19601f8201168201806040525081019061182d9190612296565b6001600160a01b03166318160ddd6040518163ffffffff1660e01b815260040160206040518083038186803b15801561186557600080fd5b505afa158015611879573d6000803e3d6000fd5b505050506040513d601f19601f8201168201806040525081019061189d91906123aa565b81866001600160a01b03166370a08231600460009054906101000a90046001600160a01b03166001600160a01b0316631f1fcd516040518163ffffffff1660e01b815260040160206040518083038186803b1580156118fb57600080fd5b505afa15801561190f573d6000803e3d6000fd5b505050506040513d601f19601f820116820180604052508101906119339190612296565b6040516001600160e01b031960e084901b1681526001600160a01b03909116600482015260240160206040518083038186803b15801561197257600080fd5b505afa158015611986573d6000803e3d6000fd5b505050506040513d601f19601f820116820180604052508101906119aa91906123aa565b6119b491906125bd565b6119be91906125a9565b9250600460009054906101000a90046001600160a01b03166001600160a01b0316631f1fcd516040518163ffffffff1660e01b815260040160206040518083038186803b158015611a0e57600080fd5b505afa158015611a22573d6000803e3d6000fd5b505050506040513d601f19601f82011682018060405250810190611a469190612296565b6001600160a01b03166318160ddd6040518163ffffffff1660e01b815260040160206040518083038186803b158015611a7e57600080fd5b505afa158015611a92573d6000803e3d6000fd5b505050506040513d601f19601f82011682018060405250810190611ab691906123aa565b81856001600160a01b03166370a08231600460009054906101000a90046001600160a01b03166001600160a01b0316631f1fcd516040518163ffffffff1660e01b815260040160206040518083038186803b158015611b1457600080fd5b505afa158015611b28573d6000803e3d6000fd5b505050506040513d601f19601f82011682018060405250810190611b4c9190612296565b6040516001600160e01b031960e084901b1681526001600160a01b03909116600482015260240160206040518083038186803b158015611b8b57600080fd5b505afa158015611b9f573d6000803e3d6000fd5b505050506040513d601f19601f82011682018060405250810190611bc391906123aa565b611bcd91906125bd565b611bd791906125a9565b915050935093915050565b611bea611e08565b6001600160a01b038116611c545760405162461bcd60e51b815260206004820152602660248201527f4f776e61626c653a206e6577206f776e657220697320746865207a65726f206160448201526564647265737360d01b60648201526084015b60405180910390fd5b61098481611f55565b6000611c6982846125a9565b9390931c92611c788284612623565b9250600282611c8785876125bd565b611c9191906125a9565b611c9b91906125a9565b6114f490856125dc565b600061151e61041d836104f7565b801580611d3c5750604051636eb1769f60e11b81523060048201526001600160a01b03838116602483015284169063dd62ed3e9060440160206040518083038186803b158015611d0257600080fd5b505afa158015611d16573d6000803e3d6000fd5b505050506040513d601f19601f82011682018060405250810190611d3a91906123aa565b155b611da75760405162461bcd60e51b815260206004820152603660248201527f5361666545524332303a20617070726f76652066726f6d206e6f6e2d7a65726f60448201527520746f206e6f6e2d7a65726f20616c6c6f77616e636560501b6064820152608401611c4b565b604080516001600160a01b038416602482015260448082018490528251808303909101815260649091019091526020810180516001600160e01b031663095ea7b360e01b1790526111fb908490611fb8565b60606114f4848460008561208a565b6000546001600160a01b0316331461150e5760405162461bcd60e51b815260206004820181905260248201527f4f776e61626c653a2063616c6c6572206973206e6f7420746865206f776e65726044820152606401611c4b565b60026001541415611eb55760405162461bcd60e51b815260206004820152601f60248201527f5265656e7472616e637947756172643a207265656e7472616e742063616c6c006044820152606401611c4b565b6002600155565b6006546001600160a01b031663a9059cbb82611ed785611534565b6040516001600160e01b031960e085901b1681526001600160a01b0390921660048301526024820152604401602060405180830381600087803b158015611f1d57600080fd5b505af1158015611f31573d6000803e3d6000fd5b505050506040513d601f19601f820116820180604052508101906111fb9190612372565b600080546001600160a01b038381166001600160a01b0319831681178455604051919092169283917f8be0079c531659141344cd1fd0a4f28419497f9722a3daafe3b4186f6b6457e09190a35050565b6000611fb182846125dc565b9392505050565b600061200d826040518060400160405280602081526020017f5361666545524332303a206c6f772d6c6576656c2063616c6c206661696c6564815250856001600160a01b0316611df99092919063ffffffff16565b8051909150156111fb578080602001905181019061202b9190612372565b6111fb5760405162461bcd60e51b815260206004820152602a60248201527f5361666545524332303a204552433230206f7065726174696f6e20646964206e6044820152691bdd081cdd58d8d9595960b21b6064820152608401611c4b565b6060824710156120eb5760405162461bcd60e51b815260206004820152602660248201527f416464726573733a20696e73756666696369656e742062616c616e636520666f6044820152651c8818d85b1b60d21b6064820152608401611c4b565b600080866001600160a01b0316858760405161210791906124d0565b60006040518083038185875af1925050503d8060008114612144576040519150601f19603f3d011682016040523d82523d6000602084013e612149565b606091505b509150915061215a87838387612165565b979650505050505050565b606083156121d15782516121ca576001600160a01b0385163b6121ca5760405162461bcd60e51b815260206004820152601d60248201527f416464726573733a2063616c6c20746f206e6f6e2d636f6e74726163740000006044820152606401611c4b565b50816114f4565b6114f483838151156121e65781518083602001fd5b8060405162461bcd60e51b8152600401611c4b91906124ec565b828054828255906000526020600020908101928215612255579160200282015b8281111561225557825182546001600160a01b0319166001600160a01b03909116178255602090920191600190910190612220565b50612261929150612265565b5090565b5b808211156122615760008155600101612266565b60006020828403121561228b578081fd5b8135611fb181612679565b6000602082840312156122a7578081fd5b8151611fb181612679565b600060208083850312156122c4578182fd5b825167ffffffffffffffff808211156122db578384fd5b818501915085601f8301126122ee578384fd5b81518181111561230057612300612663565b8060051b604051601f19603f8301168101818110858211171561232557612325612663565b604052828152858101935084860182860187018a1015612343578788fd5b8795505b83861015612365578051855260019590950194938601938601612347565b5098975050505050505050565b600060208284031215612383578081fd5b81518015158114611fb1578182fd5b6000602082840312156123a3578081fd5b5035919050565b6000602082840312156123bb578081fd5b5051919050565b600080604083850312156123d4578081fd5b8235915060208301356123e681612679565b809150509250929050565b600080600060608486031215612405578081fd5b83359250602084013561241781612679565b9150604084013561242781612679565b809150509250925092565b600080600060608486031215612446578283fd5b8335925060208401359150604084013561242781612679565b600080600060608486031215612473578283fd5b505081359360208301359350604090920135919050565b6000815480845260208085019450838352808320835b838110156124c55781546001600160a01b0316875295820195600191820191016124a0565b509495945050505050565b600082516124e28184602087016125f3565b9190910192915050565b602081526000825180602084015261250b8160408501602087016125f3565b601f01601f19169190910160400192915050565b8281526040602082015260006114f4604083018461248a565b848152608060208201526000612551608083018661248a565b6001600160a01b03949094166040830152506060015292915050565b85815284602082015260a06040820152600061258c60a083018661248a565b6001600160a01b0394909416606083015250608001529392505050565b6000826125b8576125b861264d565b500490565b60008160001904831182151516156125d7576125d7612637565b500290565b6000828210156125ee576125ee612637565b500390565b60005b8381101561260e5781810151838201526020016125f6565b8381111561261d576000848401525b50505050565b6000826126325761263261264d565b500690565b634e487b7160e01b600052601160045260246000fd5b634e487b7160e01b600052601260045260246000fd5b634e487b7160e01b600052604160045260246000fd5b6001600160a01b038116811461098457600080fdfea2646970667358221220ccbdb7c32607f749e3d54561cc9b3f737ea58241a6af1e7ff0b81722c4f0f04a64736f6c63430008040033",
    "sourcePath": "/home/surfacing8671/Documents/ReflectionVault/contracts/ ScytheEnter.sol",
    "compiler": {
        "name": "solc",
        "version": "0.8.4+commit.c7e474f2"
    },
    "functionHashes": {
        "changeRouter(address)": "340ac20f",
        "deposit(uint256,address)": "6e553f65",
        "depositETH(uint256,address)": "56150edf",
        "depositWant(uint256,address)": "5d9c06cf",
        "estETHFromShare(uint256)": "45340b48",
        "estTokensFromShareLP(uint256,address,address)": "d93b5012",
        "estimateDepositETH(uint256)": "a588e03f",
        "estimateDepositETHScythe(uint256)": "fdbd4137",
        "estimateDepositWant(uint256)": "71376d3a",
        "estimateDepositWantScythe(uint256)": "d29c38aa",
        "estimateSwap(uint256)": "2dd887b6",
        "getDecay(uint256,uint256,uint256)": "fb276c10",
        "getScytheRewards(uint256)": "c391f285",
        "halving()": "c8df245a",
        "owner()": "8da5cb5b",
        "renounceOwnership()": "715018a6",
        "route(uint256)": "b980c78f",
        "route2(uint256)": "522ec604",
        "router()": "f887ea40",
        "scytheLock()": "16decd09",
        "scytheToken()": "bb5c207b",
        "transferOwnership(address)": "f2fde38b",
        "vault()": "fbfa77cf",
        "want()": "1f1fcd51",
        "withdrawETH(uint256,uint256,address)": "6a41a61b",
        "withdrawScythe()": "34af6950"
    },
    "gasEstimates": {
        "creation": {
            "codeDepositCost": "1984800",
            "executionCost": "infinite",
            "totalCost": "infinite"
        },
        "external": {
            "changeRouter(address)": "infinite",
            "deposit(uint256,address)": "infinite",
            "depositETH(uint256,address)": "infinite",
            "depositWant(uint256,address)": "infinite",
            "estETHFromShare(uint256)": "infinite",
            "estTokensFromShareLP(uint256,address,address)": "infinite",
            "estimateDepositETH(uint256)": "infinite",
            "estimateDepositETHScythe(uint256)": "infinite",
            "estimateDepositWant(uint256)": "infinite",
            "estimateDepositWantScythe(uint256)": "infinite",
            "estimateSwap(uint256)": "infinite",
            "getDecay(uint256,uint256,uint256)": "infinite",
            "getScytheRewards(uint256)": "infinite",
            "halving()": "infinite",
            "owner()": "1043",
            "renounceOwnership()": "infinite",
            "route(uint256)": "2070",
            "route2(uint256)": "2049",
            "router()": "1070",
            "scytheLock()": "1050",
            "scytheToken()": "1115",
            "transferOwnership(address)": "infinite",
            "vault()": "1114",
            "want()": "1072",
            "withdrawETH(uint256,uint256,address)": "infinite",
            "withdrawScythe()": "infinite"
        },
        "internal": {
            "claimScythe(uint256,address)": "infinite"
        }
    }
}