{
    "contractName": "ScytheLock",
    "abi": [
        {
            "inputs": [
                {
                    "internalType": "string",
                    "name": "name",
                    "type": "string"
                },
                {
                    "internalType": "string",
                    "name": "symbol",
                    "type": "string"
                },
                {
                    "internalType": "address",
                    "name": "_want",
                    "type": "address"
                },
                {
                    "internalType": "contract IUniswapV2RouterLean",
                    "name": "_router",
                    "type": "address"
                },
                {
                    "internalType": "contract IVaultLean",
                    "name": "_vault",
                    "type": "address"
                },
                {
                    "internalType": "contract IERC20Burnable",
                    "name": "_scytheToken",
                    "type": "address"
                }
            ],
            "stateMutability": "nonpayable",
            "type": "constructor"
        },
        {
            "anonymous": false,
            "inputs": [
                {
                    "indexed": true,
                    "internalType": "address",
                    "name": "owner",
                    "type": "address"
                },
                {
                    "indexed": true,
                    "internalType": "address",
                    "name": "spender",
                    "type": "address"
                },
                {
                    "indexed": false,
                    "internalType": "uint256",
                    "name": "value",
                    "type": "uint256"
                }
            ],
            "name": "Approval",
            "type": "event"
        },
        {
            "anonymous": false,
            "inputs": [
                {
                    "indexed": false,
                    "internalType": "uint256",
                    "name": "shares",
                    "type": "uint256"
                },
                {
                    "indexed": false,
                    "internalType": "bool",
                    "name": "direct",
                    "type": "bool"
                }
            ],
            "name": "BuyBack",
            "type": "event"
        },
        {
            "anonymous": false,
            "inputs": [
                {
                    "indexed": true,
                    "internalType": "address",
                    "name": "previousOwner",
                    "type": "address"
                },
                {
                    "indexed": true,
                    "internalType": "address",
                    "name": "newOwner",
                    "type": "address"
                }
            ],
            "name": "OwnershipTransferred",
            "type": "event"
        },
        {
            "anonymous": false,
            "inputs": [
                {
                    "indexed": false,
                    "internalType": "address",
                    "name": "account",
                    "type": "address"
                }
            ],
            "name": "Paused",
            "type": "event"
        },
        {
            "anonymous": false,
            "inputs": [
                {
                    "indexed": true,
                    "internalType": "address",
                    "name": "from",
                    "type": "address"
                },
                {
                    "indexed": true,
                    "internalType": "address",
                    "name": "to",
                    "type": "address"
                },
                {
                    "indexed": false,
                    "internalType": "uint256",
                    "name": "value",
                    "type": "uint256"
                }
            ],
            "name": "Transfer",
            "type": "event"
        },
        {
            "anonymous": false,
            "inputs": [
                {
                    "indexed": false,
                    "internalType": "address",
                    "name": "account",
                    "type": "address"
                }
            ],
            "name": "Unpaused",
            "type": "event"
        },
        {
            "anonymous": false,
            "inputs": [
                {
                    "indexed": false,
                    "internalType": "uint256",
                    "name": "shares",
                    "type": "uint256"
                },
                {
                    "indexed": false,
                    "internalType": "uint256",
                    "name": "fee",
                    "type": "uint256"
                }
            ],
            "name": "Withdraw",
            "type": "event"
        },
        {
            "inputs": [],
            "name": "ETHEnabled",
            "outputs": [
                {
                    "internalType": "bool",
                    "name": "",
                    "type": "bool"
                }
            ],
            "stateMutability": "view",
            "type": "function"
        },
        {
            "inputs": [
                {
                    "internalType": "address",
                    "name": "owner",
                    "type": "address"
                },
                {
                    "internalType": "address",
                    "name": "spender",
                    "type": "address"
                }
            ],
            "name": "allowance",
            "outputs": [
                {
                    "internalType": "uint256",
                    "name": "",
                    "type": "uint256"
                }
            ],
            "stateMutability": "view",
            "type": "function"
        },
        {
            "inputs": [
                {
                    "internalType": "address",
                    "name": "spender",
                    "type": "address"
                },
                {
                    "internalType": "uint256",
                    "name": "amount",
                    "type": "uint256"
                }
            ],
            "name": "approve",
            "outputs": [
                {
                    "internalType": "bool",
                    "name": "",
                    "type": "bool"
                }
            ],
            "stateMutability": "nonpayable",
            "type": "function"
        },
        {
            "inputs": [],
            "name": "balance",
            "outputs": [
                {
                    "internalType": "uint256",
                    "name": "",
                    "type": "uint256"
                }
            ],
            "stateMutability": "view",
            "type": "function"
        },
        {
            "inputs": [
                {
                    "internalType": "address",
                    "name": "account",
                    "type": "address"
                }
            ],
            "name": "balanceOf",
            "outputs": [
                {
                    "internalType": "uint256",
                    "name": "",
                    "type": "uint256"
                }
            ],
            "stateMutability": "view",
            "type": "function"
        },
        {
            "inputs": [],
            "name": "buyBackRouter",
            "outputs": [
                {
                    "internalType": "contract IUniswapV2RouterLean",
                    "name": "",
                    "type": "address"
                }
            ],
            "stateMutability": "view",
            "type": "function"
        },
        {
            "inputs": [],
            "name": "buyback",
            "outputs": [
                {
                    "internalType": "uint256",
                    "name": "",
                    "type": "uint256"
                }
            ],
            "stateMutability": "view",
            "type": "function"
        },
        {
            "inputs": [
                {
                    "internalType": "uint256",
                    "name": "_reflection",
                    "type": "uint256"
                },
                {
                    "internalType": "uint256",
                    "name": "_reflectionTransfer",
                    "type": "uint256"
                },
                {
                    "internalType": "uint256",
                    "name": "_buyback",
                    "type": "uint256"
                }
            ],
            "name": "changeFees",
            "outputs": [],
            "stateMutability": "nonpayable",
            "type": "function"
        },
        {
            "inputs": [
                {
                    "internalType": "contract IUniswapV2RouterLean",
                    "name": "_router",
                    "type": "address"
                }
            ],
            "name": "changeRouter",
            "outputs": [],
            "stateMutability": "nonpayable",
            "type": "function"
        },
        {
            "inputs": [
                {
                    "internalType": "contract IUniswapV2RouterLean",
                    "name": "_router",
                    "type": "address"
                }
            ],
            "name": "changebuyBackRouter",
            "outputs": [],
            "stateMutability": "nonpayable",
            "type": "function"
        },
        {
            "inputs": [],
            "name": "decimals",
            "outputs": [
                {
                    "internalType": "uint8",
                    "name": "",
                    "type": "uint8"
                }
            ],
            "stateMutability": "view",
            "type": "function"
        },
        {
            "inputs": [
                {
                    "internalType": "address",
                    "name": "spender",
                    "type": "address"
                },
                {
                    "internalType": "uint256",
                    "name": "subtractedValue",
                    "type": "uint256"
                }
            ],
            "name": "decreaseAllowance",
            "outputs": [
                {
                    "internalType": "bool",
                    "name": "",
                    "type": "bool"
                }
            ],
            "stateMutability": "nonpayable",
            "type": "function"
        },
        {
            "inputs": [],
            "name": "delegatedBuyback",
            "outputs": [
                {
                    "internalType": "address",
                    "name": "",
                    "type": "address"
                }
            ],
            "stateMutability": "view",
            "type": "function"
        },
        {
            "inputs": [
                {
                    "internalType": "uint256",
                    "name": "_amount",
                    "type": "uint256"
                },
                {
                    "internalType": "address",
                    "name": "_to",
                    "type": "address"
                }
            ],
            "name": "deposit",
            "outputs": [],
            "stateMutability": "nonpayable",
            "type": "function"
        },
        {
            "inputs": [],
            "name": "depositAll",
            "outputs": [],
            "stateMutability": "nonpayable",
            "type": "function"
        },
        {
            "inputs": [
                {
                    "internalType": "address",
                    "name": "token",
                    "type": "address"
                },
                {
                    "internalType": "uint256",
                    "name": "ammt",
                    "type": "uint256"
                }
            ],
            "name": "emergencyExit",
            "outputs": [],
            "stateMutability": "nonpayable",
            "type": "function"
        },
        {
            "inputs": [
                {
                    "internalType": "uint256",
                    "name": "_share",
                    "type": "uint256"
                }
            ],
            "name": "estTokensFromShare",
            "outputs": [
                {
                    "internalType": "uint256",
                    "name": "what",
                    "type": "uint256"
                }
            ],
            "stateMutability": "view",
            "type": "function"
        },
        {
            "inputs": [],
            "name": "getBuyBackShares",
            "outputs": [
                {
                    "internalType": "uint256",
                    "name": "",
                    "type": "uint256"
                }
            ],
            "stateMutability": "view",
            "type": "function"
        },
        {
            "inputs": [],
            "name": "getPricePerFullShare",
            "outputs": [
                {
                    "internalType": "uint256",
                    "name": "",
                    "type": "uint256"
                }
            ],
            "stateMutability": "view",
            "type": "function"
        },
        {
            "inputs": [
                {
                    "internalType": "uint256",
                    "name": "_amount",
                    "type": "uint256"
                },
                {
                    "internalType": "uint256",
                    "name": "_amountOutMin",
                    "type": "uint256"
                }
            ],
            "name": "handleBuyBack",
            "outputs": [],
            "stateMutability": "nonpayable",
            "type": "function"
        },
        {
            "inputs": [
                {
                    "internalType": "uint256",
                    "name": "_amount",
                    "type": "uint256"
                }
            ],
            "name": "handleBuyBackDirect",
            "outputs": [],
            "stateMutability": "nonpayable",
            "type": "function"
        },
        {
            "inputs": [
                {
                    "internalType": "address",
                    "name": "spender",
                    "type": "address"
                },
                {
                    "internalType": "uint256",
                    "name": "addedValue",
                    "type": "uint256"
                }
            ],
            "name": "increaseAllowance",
            "outputs": [
                {
                    "internalType": "bool",
                    "name": "",
                    "type": "bool"
                }
            ],
            "stateMutability": "nonpayable",
            "type": "function"
        },
        {
            "inputs": [
                {
                    "internalType": "contract IMigrator",
                    "name": "migrator",
                    "type": "address"
                },
                {
                    "internalType": "address",
                    "name": "_want",
                    "type": "address"
                },
                {
                    "internalType": "contract IVaultLean",
                    "name": "_vault",
                    "type": "address"
                },
                {
                    "internalType": "uint256",
                    "name": "_minAmmt",
                    "type": "uint256"
                }
            ],
            "name": "migrate",
            "outputs": [],
            "stateMutability": "nonpayable",
            "type": "function"
        },
        {
            "inputs": [],
            "name": "name",
            "outputs": [
                {
                    "internalType": "string",
                    "name": "",
                    "type": "string"
                }
            ],
            "stateMutability": "view",
            "type": "function"
        },
        {
            "inputs": [],
            "name": "owner",
            "outputs": [
                {
                    "internalType": "address",
                    "name": "",
                    "type": "address"
                }
            ],
            "stateMutability": "view",
            "type": "function"
        },
        {
            "inputs": [],
            "name": "pause",
            "outputs": [],
            "stateMutability": "nonpayable",
            "type": "function"
        },
        {
            "inputs": [],
            "name": "paused",
            "outputs": [
                {
                    "internalType": "bool",
                    "name": "",
                    "type": "bool"
                }
            ],
            "stateMutability": "view",
            "type": "function"
        },
        {
            "inputs": [],
            "name": "reflection",
            "outputs": [
                {
                    "internalType": "uint256",
                    "name": "",
                    "type": "uint256"
                }
            ],
            "stateMutability": "view",
            "type": "function"
        },
        {
            "inputs": [],
            "name": "reflectionTransfer",
            "outputs": [
                {
                    "internalType": "uint256",
                    "name": "",
                    "type": "uint256"
                }
            ],
            "stateMutability": "view",
            "type": "function"
        },
        {
            "inputs": [],
            "name": "renounceOwnership",
            "outputs": [],
            "stateMutability": "nonpayable",
            "type": "function"
        },
        {
            "inputs": [],
            "name": "router",
            "outputs": [
                {
                    "internalType": "contract IUniswapV2RouterLean",
                    "name": "",
                    "type": "address"
                }
            ],
            "stateMutability": "view",
            "type": "function"
        },
        {
            "inputs": [],
            "name": "scytheToken",
            "outputs": [
                {
                    "internalType": "contract IERC20Burnable",
                    "name": "",
                    "type": "address"
                }
            ],
            "stateMutability": "view",
            "type": "function"
        },
        {
            "inputs": [
                {
                    "internalType": "address",
                    "name": "_delegatedBuyback",
                    "type": "address"
                }
            ],
            "name": "setDelegate",
            "outputs": [],
            "stateMutability": "nonpayable",
            "type": "function"
        },
        {
            "inputs": [
                {
                    "internalType": "bool",
                    "name": "_ETHEnabled",
                    "type": "bool"
                }
            ],
            "name": "setEthEnabled",
            "outputs": [],
            "stateMutability": "nonpayable",
            "type": "function"
        },
        {
            "inputs": [],
            "name": "symbol",
            "outputs": [
                {
                    "internalType": "string",
                    "name": "",
                    "type": "string"
                }
            ],
            "stateMutability": "view",
            "type": "function"
        },
        {
            "inputs": [],
            "name": "totalSupply",
            "outputs": [
                {
                    "internalType": "uint256",
                    "name": "",
                    "type": "uint256"
                }
            ],
            "stateMutability": "view",
            "type": "function"
        },
        {
            "inputs": [
                {
                    "internalType": "address",
                    "name": "to",
                    "type": "address"
                },
                {
                    "internalType": "uint256",
                    "name": "amount",
                    "type": "uint256"
                }
            ],
            "name": "transfer",
            "outputs": [
                {
                    "internalType": "bool",
                    "name": "",
                    "type": "bool"
                }
            ],
            "stateMutability": "nonpayable",
            "type": "function"
        },
        {
            "inputs": [
                {
                    "internalType": "address",
                    "name": "from",
                    "type": "address"
                },
                {
                    "internalType": "address",
                    "name": "to",
                    "type": "address"
                },
                {
                    "internalType": "uint256",
                    "name": "amount",
                    "type": "uint256"
                }
            ],
            "name": "transferFrom",
            "outputs": [
                {
                    "internalType": "bool",
                    "name": "",
                    "type": "bool"
                }
            ],
            "stateMutability": "nonpayable",
            "type": "function"
        },
        {
            "inputs": [
                {
                    "internalType": "address",
                    "name": "newOwner",
                    "type": "address"
                }
            ],
            "name": "transferOwnership",
            "outputs": [],
            "stateMutability": "nonpayable",
            "type": "function"
        },
        {
            "inputs": [],
            "name": "unpause",
            "outputs": [],
            "stateMutability": "nonpayable",
            "type": "function"
        },
        {
            "inputs": [],
            "name": "vault",
            "outputs": [
                {
                    "internalType": "contract IVaultLean",
                    "name": "",
                    "type": "address"
                }
            ],
            "stateMutability": "view",
            "type": "function"
        },
        {
            "inputs": [],
            "name": "want",
            "outputs": [
                {
                    "internalType": "contract IERC20",
                    "name": "",
                    "type": "address"
                }
            ],
            "stateMutability": "view",
            "type": "function"
        },
        {
            "inputs": [],
            "name": "wantAddress",
            "outputs": [
                {
                    "internalType": "address",
                    "name": "",
                    "type": "address"
                }
            ],
            "stateMutability": "view",
            "type": "function"
        },
        {
            "inputs": [
                {
                    "internalType": "uint256",
                    "name": "_share",
                    "type": "uint256"
                },
                {
                    "internalType": "address",
                    "name": "_to",
                    "type": "address"
                }
            ],
            "name": "withdraw",
            "outputs": [
                {
                    "internalType": "uint256",
                    "name": "what",
                    "type": "uint256"
                }
            ],
            "stateMutability": "nonpayable",
            "type": "function"
        },
        {
            "inputs": [
                {
                    "internalType": "address",
                    "name": "_to",
                    "type": "address"
                }
            ],
            "name": "withdrawAll",
            "outputs": [],
            "stateMutability": "nonpayable",
            "type": "function"
        },
        {
            "inputs": [
                {
                    "internalType": "uint256",
                    "name": "_share",
                    "type": "uint256"
                },
                {
                    "internalType": "uint256",
                    "name": "_amountOutMin",
                    "type": "uint256"
                },
                {
                    "internalType": "address",
                    "name": "_to",
                    "type": "address"
                }
            ],
            "name": "withdrawETH",
            "outputs": [],
            "stateMutability": "nonpayable",
            "type": "function"
        }
    ],
    "bytecode": "60806040526101f460078190556008556032600955600f805460ff60a01b1916600160a01b1790553480156200003457600080fd5b5060405162002f9838038062002f988339810160408190526200005791620002de565b8551869086906200007090600390602085019062000185565b5080516200008690600490602084019062000185565b505050620000a36200009d6200012f60201b60201c565b62000133565b6005805460ff60a01b191690556001600655600c80546001600160a01b039586166001600160a01b03199182168117909255600b80548216909217909155600d805494861694821685179055600e80548216909417909355600f805492851692841692909217909155600a80549190931690821617909155601080549091163317905550620004079050565b3390565b600580546001600160a01b038381166001600160a01b0319831681179093556040519116919082907f8be0079c531659141344cd1fd0a4f28419497f9722a3daafe3b4186f6b6457e090600090a35050565b82805462000193906200039b565b90600052602060002090601f016020900481019282620001b7576000855562000202565b82601f10620001d257805160ff191683800117855562000202565b8280016001018555821562000202579182015b8281111562000202578251825591602001919060010190620001e5565b506200021092915062000214565b5090565b5b8082111562000210576000815560010162000215565b600082601f8301126200023c578081fd5b81516001600160401b0380821115620002595762000259620003d8565b604051601f8301601f19908116603f01168101908282118183101715620002845762000284620003d8565b81604052838152602092508683858801011115620002a0578485fd5b8491505b83821015620002c35785820183015181830184015290820190620002a4565b83821115620002d457848385830101525b9695505050505050565b60008060008060008060c08789031215620002f7578182fd5b86516001600160401b03808211156200030e578384fd5b6200031c8a838b016200022b565b9750602089015191508082111562000332578384fd5b506200034189828a016200022b565b95505060408701516200035481620003ee565b60608801519094506200036781620003ee565b60808801519093506200037a81620003ee565b60a08801519092506200038d81620003ee565b809150509295509295509295565b600181811c90821680620003b057607f821691505b60208210811415620003d257634e487b7160e01b600052602260045260246000fd5b50919050565b634e487b7160e01b600052604160045260246000fd5b6001600160a01b03811681146200040457600080fd5b50565b612b8180620004176000396000f3fe608060405234801561001057600080fd5b50600436106102895760003560e01c80638cd326691161015c578063bb5c207b116100ce578063f2fde38b11610087578063f2fde38b1461055e578063f61556c814610571578063f887ea4014610584578063f8ec691114610597578063fa09e630146105a0578063fbfa77cf146105b357600080fd5b8063bb5c207b146104f7578063ca5eb5e11461050a578063d798a0791461051d578063dd62ed3e14610530578063de5f626814610543578063e7a036791461054b57600080fd5b8063a4cfb52511610120578063a4cfb5251461049a578063a9059cbb146104ad578063ac2e7b37146104c0578063ad34f33a146104d3578063b628c3d8146104e6578063b69ef8a8146104ef57600080fd5b80638cd32669146104485780638da5cb5b1461045b57806395d89b411461046c578063a457c2d714610474578063a4847c5a1461048757600080fd5b806339509351116102005780636e553f65116101b95780636e553f65146103e157806370a08231146103f4578063715018a61461041d57806377c7b8fc146104255780637a3195901461042d5780638456cb591461044057600080fd5b806339509351146103865780633f4ba83a146103995780634f61dc41146103a15780635c975abb146103b45780636a41a61b146103c65780636ae0984a146103d957600080fd5b80631f1fcd51116102525780631f1fcd511461030857806323b872dd14610333578063268f8f7714610346578063313ce5671461034f578063340ac20f1461035e57806334fcff0c1461037357600080fd5b8062f714ce1461028e57806306fdde03146102b4578063095ea7b3146102c957806318160ddd146102ec5780631d29f96c146102f4575b600080fd5b6102a161029c3660046128c0565b6105c6565b6040519081526020015b60405180910390f35b6102bc610706565b6040516102ab9190612984565b6102dc6102d736600461271d565b610798565b60405190151581526020016102ab565b6002546102a1565b600f546102dc90600160a01b900460ff1681565b600b5461031b906001600160a01b031681565b6040516001600160a01b0390911681526020016102ab565b6102dc6103413660046126dd565b6107b0565b6102a160075481565b604051601281526020016102ab565b61037161036c36600461266d565b610807565b005b610371610381366004612840565b610831565b6102dc61039436600461271d565b610972565b610371610994565b600e5461031b906001600160a01b031681565b600554600160a01b900460ff166102dc565b6103716103d4366004612905565b6109a6565b6102a1610d6a565b6103716103ef3660046128c0565b610de1565b6102a161040236600461266d565b6001600160a01b031660009081526020819052604090205490565b610371610ef5565b6102a1610f07565b61037161043b36600461293d565b610f44565b610371611082565b60105461031b906001600160a01b031681565b6005546001600160a01b031661031b565b6102bc611092565b6102dc61048236600461271d565b6110a1565b610371610495366004612890565b611127565b6102a16104a8366004612890565b611338565b6102dc6104bb36600461271d565b611401565b6103716104ce3660046128e4565b61143f565b6103716104e136600461266d565b61188e565b6102a160085481565b6102a16118b8565b600a5461031b906001600160a01b031681565b61037161051836600461266d565b6118e9565b61037161052b366004612808565b611913565b6102a161053e3660046126a5565b611939565b610371611964565b600c5461031b906001600160a01b031681565b61037161056c36600461266d565b6119e7565b61037161057f36600461271d565b611a60565b600d5461031b906001600160a01b031681565b6102a160095481565b6103716105ae36600461266d565b611b0b565b600f5461031b906001600160a01b031681565b60006105d0611b25565b60006105f36127106105ed60075487611b7290919063ffffffff16565b90611b85565b9050600061060a8261060460025490565b90611b91565b600f546040516370a0823160e01b81523060048201529192506106a29183916105ed916001600160a01b03909116906370a082319060240160206040518083038186803b15801561065a57600080fd5b505afa15801561066e573d6000803e3d6000fd5b505050506040513d601f19601f8201168201806040525081019061069291906128a8565b61069c8987611b91565b90611b72565b92506106ae3386611b9d565b600f546106c5906001600160a01b03168585611ccf565b60408051868152602081018490527f56ca301a9219608c91e7bcee90e083c19671d2cdcc96752c7af291cee5f9c8c8910160405180910390a1505092915050565b60606003805461071590612ac1565b80601f016020809104026020016040519081016040528092919081815260200182805461074190612ac1565b801561078e5780601f106107635761010080835404028352916020019161078e565b820191906000526020600020905b81548152906001019060200180831161077157829003601f168201915b5050505050905090565b6000336107a6818585611d32565b5060019392505050565b6000336107be858285611e56565b60006107db6127106105ed60085487611b7290919063ffffffff16565b90506107e78682611b9d565b6107fb86866107f68785611b91565b611eca565b50600195945050505050565b61080f61206e565b600d80546001600160a01b0319166001600160a01b0392909216919091179055565b61083961206e565b600f546040516370a0823160e01b81523060048201526108cd9186916001600160a01b03909116906370a082319060240160206040518083038186803b15801561088257600080fd5b505afa158015610896573d6000803e3d6000fd5b505050506040513d601f19601f820116820180604052508101906108ba91906128a8565b600f546001600160a01b031691906120c8565b6040516308a960c160e31b8152600481018290526001600160a01b0385169063454b060890602401600060405180830381600087803b15801561090f57600080fd5b505af1158015610923573d6000803e3d6000fd5b5050600c80546001600160a01b03199081166001600160a01b03888116918217909355600b805483169091179055600f80549091169186169190911790555061096c90506121ec565b50505050565b6000336107a68185856109858383611939565b61098f9190612a27565b611d32565b61099c61206e565b6109a461224c565b565b6109ae612288565b600f54600160a01b900460ff16610a325760405162461bcd60e51b815260206004820152603760248201527f455448206465706f736974732f77697468647261776c7320686176652062656560448201527f6e2074656d706f726172696c792073757370656e64656400000000000000000060648201526084015b60405180910390fd5b6000610a3e84306105c6565b600b546040516370a0823160e01b81523060048201529192506000916001600160a01b03909116906370a082319060240160206040518083038186803b158015610a8757600080fd5b505afa158015610a9b573d6000803e3d6000fd5b505050506040513d601f19601f82011682018060405250810190610abf91906128a8565b600f54604051632e1a7d4d60e01b8152600481018590529192506001600160a01b031690632e1a7d4d90602401600060405180830381600087803b158015610b0657600080fd5b505af1158015610b1a573d6000803e3d6000fd5b5050600b546040516370a0823160e01b8152306004820152610ba093508492506001600160a01b03909116906370a08231906024015b60206040518083038186803b158015610b6857600080fd5b505afa158015610b7c573d6000803e3d6000fd5b505050506040513d601f19601f8201168201806040525081019061060491906128a8565b600d54600b54919250610bc0916001600160a01b039081169116836120c8565b6040805160028082526060820183526000926020830190803683375050600c5482519293506001600160a01b031691839150600090610c0f57634e487b7160e01b600052603260045260246000fd5b6001600160a01b03928316602091820292909201810191909152600d54604080516315ab88c960e31b81529051919093169263ad5c4648926004808301939192829003018186803b158015610c6357600080fd5b505afa158015610c77573d6000803e3d6000fd5b505050506040513d601f19601f82011682018060405250810190610c9b9190612689565b81600181518110610cbc57634e487b7160e01b600052603260045260246000fd5b6001600160a01b039283166020918202929092010152600d546040516318cbafe560e01b81529116906318cbafe590610d01908590899086908a9042906004016129b7565b600060405180830381600087803b158015610d1b57600080fd5b505af1158015610d2f573d6000803e3d6000fd5b505050506040513d6000823e601f3d908101601f19168201604052610d579190810190612748565b50505050610d656001600655565b505050565b6040516370a0823160e01b815230600482018190526000916370a08231906024015b60206040518083038186803b158015610da457600080fd5b505afa158015610db8573d6000803e3d6000fd5b505050506040513d601f19601f82011682018060405250810190610ddc91906128a8565b905090565b610de9611b25565b600f546040516370a0823160e01b81523060048201526000916001600160a01b0316906370a082319060240160206040518083038186803b158015610e2d57600080fd5b505afa158015610e41573d6000803e3d6000fd5b505050506040513d601f19601f82011682018060405250810190610e6591906128a8565b90506000610e7260025490565b9050838115801590610e8357508215155b15610e9957610e96836105ed8785611b72565b90505b6000610eb66127106105ed60095485611b7290919063ffffffff16565b9050610ec230826122e2565b610ed585610ed08484611b91565b6122e2565b600f54610eed906001600160a01b03163330896123a1565b505050505050565b610efd61206e565b6109a460006123d9565b6000610f1260025490565b15610f3757610ddc610f2360025490565b6105ed670de0b6b3a764000061069c6118b8565b50670de0b6b3a764000090565b610f4c61206e565b6107d0831115610fac5760405162461bcd60e51b815260206004820152602560248201527f7265666c6578696f6e206d6179206e6f742062652067726561746572207468616044820152646e2032302560d81b6064820152608401610a29565b6107d08211156110185760405162461bcd60e51b815260206004820152603160248201527f7265666c6578696f6e206f6e207472616e73666572206d6179206e6f742062656044820152702067726561746572207468616e2032302560781b6064820152608401610a29565b60018111156110745760405162461bcd60e51b815260206004820152602260248201527f6275796261636b206d6179206e6f742062652067726561746572207468616e20604482015261312560f01b6064820152608401610a29565b600792909255600855600955565b61108a61206e565b6109a46121ec565b60606004805461071590612ac1565b600033816110af8286611939565b90508381101561110f5760405162461bcd60e51b815260206004820152602560248201527f45524332303a2064656372656173656420616c6c6f77616e63652062656c6f77604482015264207a65726f60d81b6064820152608401610a29565b61111c8286868403611d32565b506001949350505050565b61112f61206e565b8061114c306111466005546001600160a01b031690565b83611eca565b600061115882306105c6565b600b546040516370a0823160e01b81523060048201529192506000916001600160a01b03909116906370a082319060240160206040518083038186803b1580156111a157600080fd5b505afa1580156111b5573d6000803e3d6000fd5b505050506040513d601f19601f820116820180604052508101906111d991906128a8565b600f54604051632e1a7d4d60e01b8152600481018590529192506001600160a01b031690632e1a7d4d90602401600060405180830381600087803b15801561122057600080fd5b505af1158015611234573d6000803e3d6000fd5b5050600b546040516370a0823160e01b815230600482015261126e93508492506001600160a01b03909116906370a0823190602401610b50565b600b5460105460405163a9059cbb60e01b81526001600160a01b03918216600482015260248101849052929350169063a9059cbb90604401602060405180830381600087803b1580156112c057600080fd5b505af11580156112d4573d6000803e3d6000fd5b505050506040513d601f19601f820116820180604052508101906112f89190612824565b5060408051848152600160208201527f87464ae6d6baa040e5e164cc9aa27f7258e412981757404d06c1e3cfd05dfaf2910160405180910390a150505050565b6000806113566127106105ed60075486611b7290919063ffffffff16565b905060006113678261060460025490565b600f546040516370a0823160e01b81523060048201529192506113f99183916105ed916001600160a01b03909116906370a082319060240160206040518083038186803b1580156113b757600080fd5b505afa1580156113cb573d6000803e3d6000fd5b505050506040513d601f19601f820116820180604052508101906113ef91906128a8565b61069c8887611b91565b949350505050565b60008033905060006114246127106105ed60085487611b7290919063ffffffff16565b90506114308282611b9d565b61111c82866107f68785611b91565b61144761206e565b8161145e306111466005546001600160a01b031690565b600061146a82306105c6565b600b546040516370a0823160e01b81523060048201529192506000916001600160a01b03909116906370a082319060240160206040518083038186803b1580156114b357600080fd5b505afa1580156114c7573d6000803e3d6000fd5b505050506040513d601f19601f820116820180604052508101906114eb91906128a8565b600f54604051632e1a7d4d60e01b8152600481018590529192506001600160a01b031690632e1a7d4d90602401600060405180830381600087803b15801561153257600080fd5b505af1158015611546573d6000803e3d6000fd5b5050600b546040516370a0823160e01b815230600482015261158093508492506001600160a01b03909116906370a0823190602401610b50565b600e54600b549192506115a0916001600160a01b039081169116836120c8565b60408051600380825260808201909252600091602082016060803683375050600c5482519293506001600160a01b0316918391506000906115f157634e487b7160e01b600052603260045260246000fd5b6001600160a01b03928316602091820292909201810191909152600e54604080516315ab88c960e31b81529051919093169263ad5c4648926004808301939192829003018186803b15801561164557600080fd5b505afa158015611659573d6000803e3d6000fd5b505050506040513d601f19601f8201168201806040525081019061167d9190612689565b8160018151811061169e57634e487b7160e01b600052603260045260246000fd5b6001600160a01b039283166020918202929092010152600a548251911690829060029081106116dd57634e487b7160e01b600052603260045260246000fd5b6001600160a01b039283166020918202929092010152600e546040516338ed173960e01b81529116906338ed17399061172290859089908690309042906004016129b7565b600060405180830381600087803b15801561173c57600080fd5b505af1158015611750573d6000803e3d6000fd5b505050506040513d6000823e601f3d908101601f191682016040526117789190810190612748565b50600a546040516370a0823160e01b81523060048201526001600160a01b03909116906342966c689082906370a082319060240160206040518083038186803b1580156117c457600080fd5b505afa1580156117d8573d6000803e3d6000fd5b505050506040513d601f19601f820116820180604052508101906117fc91906128a8565b6040518263ffffffff1660e01b815260040161181a91815260200190565b600060405180830381600087803b15801561183457600080fd5b505af1158015611848573d6000803e3d6000fd5b505060408051878152600060208201527f87464ae6d6baa040e5e164cc9aa27f7258e412981757404d06c1e3cfd05dfaf2935001905060405180910390a1505050505050565b61189661206e565b600e80546001600160a01b0319166001600160a01b0392909216919091179055565b600f546040516370a0823160e01b81523060048201526000916001600160a01b0316906370a0823190602401610d8c565b6118f161206e565b601080546001600160a01b0319166001600160a01b0392909216919091179055565b61191b61206e565b600f8054911515600160a01b0260ff60a01b19909216919091179055565b6001600160a01b03918216600090815260016020908152604080832093909416825291909152205490565b600f546040516370a0823160e01b81523360048201526109a4916001600160a01b0316906370a082319060240160206040518083038186803b1580156119a957600080fd5b505afa1580156119bd573d6000803e3d6000fd5b505050506040513d601f19601f820116820180604052508101906119e191906128a8565b33610de1565b6119ef61206e565b6001600160a01b038116611a545760405162461bcd60e51b815260206004820152602660248201527f4f776e61626c653a206e6577206f776e657220697320746865207a65726f206160448201526564647265737360d01b6064820152608401610a29565b611a5d816123d9565b50565b611a6861206e565b600f546001600160a01b0383811691161415611ae15760405162461bcd60e51b815260206004820152603260248201527f656d657267656e637920657869742063616e204e4f542062652075736564206660448201527137b9103a3432903b30bab63a103a37b5b2b760711b6064820152608401610a29565b611b07611af66005546001600160a01b031690565b6001600160a01b0384169083611ccf565b5050565b33600090815260208190526040902054611b0790826105c6565b600554600160a01b900460ff16156109a45760405162461bcd60e51b815260206004820152601060248201526f14185d5cd8589b194e881c185d5cd95960821b6044820152606401610a29565b6000611b7e8284612a5f565b9392505050565b6000611b7e8284612a3f565b6000611b7e8284612a7e565b6001600160a01b038216611bfd5760405162461bcd60e51b815260206004820152602160248201527f45524332303a206275726e2066726f6d20746865207a65726f206164647265736044820152607360f81b6064820152608401610a29565b6001600160a01b03821660009081526020819052604090205481811015611c715760405162461bcd60e51b815260206004820152602260248201527f45524332303a206275726e20616d6f756e7420657863656564732062616c616e604482015261636560f01b6064820152608401610a29565b6001600160a01b0383166000818152602081815260408083208686039055600280548790039055518581529192917fddf252ad1be2c89b69c2b068fc378daa952ba7f163c4a11628f55a4df523b3ef910160405180910390a3505050565b6040516001600160a01b038316602482015260448101829052610d6590849063a9059cbb60e01b906064015b60408051601f198184030181529190526020810180516001600160e01b03166001600160e01b03199093169290921790915261242b565b6001600160a01b038316611d945760405162461bcd60e51b8152602060048201526024808201527f45524332303a20617070726f76652066726f6d20746865207a65726f206164646044820152637265737360e01b6064820152608401610a29565b6001600160a01b038216611df55760405162461bcd60e51b815260206004820152602260248201527f45524332303a20617070726f766520746f20746865207a65726f206164647265604482015261737360f01b6064820152608401610a29565b6001600160a01b0383811660008181526001602090815260408083209487168084529482529182902085905590518481527f8c5be1e5ebec7d5bd14f71427d1e84f3dd0314c0f7b2291e5b200ac8c7c3b925910160405180910390a3505050565b6000611e628484611939565b9050600019811461096c5781811015611ebd5760405162461bcd60e51b815260206004820152601d60248201527f45524332303a20696e73756666696369656e7420616c6c6f77616e63650000006044820152606401610a29565b61096c8484848403611d32565b6001600160a01b038316611f2e5760405162461bcd60e51b815260206004820152602560248201527f45524332303a207472616e736665722066726f6d20746865207a65726f206164604482015264647265737360d81b6064820152608401610a29565b6001600160a01b038216611f905760405162461bcd60e51b815260206004820152602360248201527f45524332303a207472616e7366657220746f20746865207a65726f206164647260448201526265737360e81b6064820152608401610a29565b6001600160a01b038316600090815260208190526040902054818110156120085760405162461bcd60e51b815260206004820152602660248201527f45524332303a207472616e7366657220616d6f756e7420657863656564732062604482015265616c616e636560d01b6064820152608401610a29565b6001600160a01b03848116600081815260208181526040808320878703905593871680835291849020805487019055925185815290927fddf252ad1be2c89b69c2b068fc378daa952ba7f163c4a11628f55a4df523b3ef910160405180910390a361096c565b6005546001600160a01b031633146109a45760405162461bcd60e51b815260206004820181905260248201527f4f776e61626c653a2063616c6c6572206973206e6f7420746865206f776e65726044820152606401610a29565b8015806121515750604051636eb1769f60e11b81523060048201526001600160a01b03838116602483015284169063dd62ed3e9060440160206040518083038186803b15801561211757600080fd5b505afa15801561212b573d6000803e3d6000fd5b505050506040513d601f19601f8201168201806040525081019061214f91906128a8565b155b6121bc5760405162461bcd60e51b815260206004820152603660248201527f5361666545524332303a20617070726f76652066726f6d206e6f6e2d7a65726f60448201527520746f206e6f6e2d7a65726f20616c6c6f77616e636560501b6064820152608401610a29565b6040516001600160a01b038316602482015260448101829052610d6590849063095ea7b360e01b90606401611cfb565b6121f4611b25565b6005805460ff60a01b1916600160a01b1790557f62e78cea01bee320cd4e420270b5ea74000d11b0c9f74754ebdbfc544b05a25861222f3390565b6040516001600160a01b03909116815260200160405180910390a1565b6122546124fd565b6005805460ff60a01b191690557f5db9ee0a495bf2e6ff9c91a7834c1ba4fdd244a5e8aa4e537bd38aeae4b073aa3361222f565b600260065414156122db5760405162461bcd60e51b815260206004820152601f60248201527f5265656e7472616e637947756172643a207265656e7472616e742063616c6c006044820152606401610a29565b6002600655565b6001600160a01b0382166123385760405162461bcd60e51b815260206004820152601f60248201527f45524332303a206d696e7420746f20746865207a65726f2061646472657373006044820152606401610a29565b806002600082825461234a9190612a27565b90915550506001600160a01b038216600081815260208181526040808320805486019055518481527fddf252ad1be2c89b69c2b068fc378daa952ba7f163c4a11628f55a4df523b3ef910160405180910390a35050565b6040516001600160a01b038085166024830152831660448201526064810182905261096c9085906323b872dd60e01b90608401611cfb565b600580546001600160a01b038381166001600160a01b0319831681179093556040519116919082907f8be0079c531659141344cd1fd0a4f28419497f9722a3daafe3b4186f6b6457e090600090a35050565b6000612480826040518060400160405280602081526020017f5361666545524332303a206c6f772d6c6576656c2063616c6c206661696c6564815250856001600160a01b031661254d9092919063ffffffff16565b805190915015610d65578080602001905181019061249e9190612824565b610d655760405162461bcd60e51b815260206004820152602a60248201527f5361666545524332303a204552433230206f7065726174696f6e20646964206e6044820152691bdd081cdd58d8d9595960b21b6064820152608401610a29565b600554600160a01b900460ff166109a45760405162461bcd60e51b815260206004820152601460248201527314185d5cd8589b194e881b9bdd081c185d5cd95960621b6044820152606401610a29565b60606113f9848460008585600080866001600160a01b031685876040516125749190612968565b60006040518083038185875af1925050503d80600081146125b1576040519150601f19603f3d011682016040523d82523d6000602084013e6125b6565b606091505b50915091506125c7878383876125d2565b979650505050505050565b6060831561263e578251612637576001600160a01b0385163b6126375760405162461bcd60e51b815260206004820152601d60248201527f416464726573733a2063616c6c20746f206e6f6e2d636f6e74726163740000006044820152606401610a29565b50816113f9565b6113f983838151156126535781518083602001fd5b8060405162461bcd60e51b8152600401610a299190612984565b60006020828403121561267e578081fd5b8135611b7e81612b28565b60006020828403121561269a578081fd5b8151611b7e81612b28565b600080604083850312156126b7578081fd5b82356126c281612b28565b915060208301356126d281612b28565b809150509250929050565b6000806000606084860312156126f1578081fd5b83356126fc81612b28565b9250602084013561270c81612b28565b929592945050506040919091013590565b6000806040838503121561272f578182fd5b823561273a81612b28565b946020939093013593505050565b6000602080838503121561275a578182fd5b825167ffffffffffffffff80821115612771578384fd5b818501915085601f830112612784578384fd5b81518181111561279657612796612b12565b8060051b604051601f19603f830116810181811085821117156127bb576127bb612b12565b604052828152858101935084860182860187018a10156127d9578788fd5b8795505b838610156127fb5780518552600195909501949386019386016127dd565b5098975050505050505050565b600060208284031215612819578081fd5b8135611b7e81612b3d565b600060208284031215612835578081fd5b8151611b7e81612b3d565b60008060008060808587031215612855578081fd5b843561286081612b28565b9350602085013561287081612b28565b9250604085013561288081612b28565b9396929550929360600135925050565b6000602082840312156128a1578081fd5b5035919050565b6000602082840312156128b9578081fd5b5051919050565b600080604083850312156128d2578182fd5b8235915060208301356126d281612b28565b600080604083850312156128f6578182fd5b50508035926020909101359150565b600080600060608486031215612919578081fd5b8335925060208401359150604084013561293281612b28565b809150509250925092565b600080600060608486031215612951578081fd5b505081359360208301359350604090920135919050565b6000825161297a818460208701612a95565b9190910192915050565b60208152600082518060208401526129a3816040850160208701612a95565b601f01601f19169190910160400192915050565b600060a082018783526020878185015260a0604085015281875180845260c0860191508289019350845b81811015612a065784516001600160a01b0316835293830193918301916001016129e1565b50506001600160a01b03969096166060850152505050608001529392505050565b60008219821115612a3a57612a3a612afc565b500190565b600082612a5a57634e487b7160e01b81526012600452602481fd5b500490565b6000816000190483118215151615612a7957612a79612afc565b500290565b600082821015612a9057612a90612afc565b500390565b60005b83811015612ab0578181015183820152602001612a98565b8381111561096c5750506000910152565b600181811c90821680612ad557607f821691505b60208210811415612af657634e487b7160e01b600052602260045260246000fd5b50919050565b634e487b7160e01b600052601160045260246000fd5b634e487b7160e01b600052604160045260246000fd5b6001600160a01b0381168114611a5d57600080fd5b8015158114611a5d57600080fdfea2646970667358221220cfb28f4ebe3402dee5a51c82050b60b8a3110de6fc341430f61b376a7728747b64736f6c63430008040033",
    "sourcePath": "/home/surfacing8671/Documents/ReflectionVault/contracts/LockedVault.sol",
    "compiler": {
        "name": "solc",
        "version": "0.8.4+commit.c7e474f2"
    },
    "functionHashes": {
        "ETHEnabled()": "1d29f96c",
        "allowance(address,address)": "dd62ed3e",
        "approve(address,uint256)": "095ea7b3",
        "balance()": "b69ef8a8",
        "balanceOf(address)": "70a08231",
        "buyBackRouter()": "4f61dc41",
        "buyback()": "f8ec6911",
        "changeFees(uint256,uint256,uint256)": "7a319590",
        "changeRouter(address)": "340ac20f",
        "changebuyBackRouter(address)": "ad34f33a",
        "decimals()": "313ce567",
        "decreaseAllowance(address,uint256)": "a457c2d7",
        "delegatedBuyback()": "8cd32669",
        "deposit(uint256,address)": "6e553f65",
        "depositAll()": "de5f6268",
        "emergencyExit(address,uint256)": "f61556c8",
        "estTokensFromShare(uint256)": "a4cfb525",
        "getBuyBackShares()": "6ae0984a",
        "getPricePerFullShare()": "77c7b8fc",
        "handleBuyBack(uint256,uint256)": "ac2e7b37",
        "handleBuyBackDirect(uint256)": "a4847c5a",
        "increaseAllowance(address,uint256)": "39509351",
        "migrate(address,address,address,uint256)": "34fcff0c",
        "name()": "06fdde03",
        "owner()": "8da5cb5b",
        "pause()": "8456cb59",
        "paused()": "5c975abb",
        "reflection()": "268f8f77",
        "reflectionTransfer()": "b628c3d8",
        "renounceOwnership()": "715018a6",
        "router()": "f887ea40",
        "scytheToken()": "bb5c207b",
        "setDelegate(address)": "ca5eb5e1",
        "setEthEnabled(bool)": "d798a079",
        "symbol()": "95d89b41",
        "totalSupply()": "18160ddd",
        "transfer(address,uint256)": "a9059cbb",
        "transferFrom(address,address,uint256)": "23b872dd",
        "transferOwnership(address)": "f2fde38b",
        "unpause()": "3f4ba83a",
        "vault()": "fbfa77cf",
        "want()": "1f1fcd51",
        "wantAddress()": "e7a03679",
        "withdraw(uint256,address)": "00f714ce",
        "withdrawAll(address)": "fa09e630",
        "withdrawETH(uint256,uint256,address)": "6a41a61b"
    },
    "gasEstimates": {
        "creation": {
            "codeDepositCost": "2227400",
            "executionCost": "infinite",
            "totalCost": "infinite"
        },
        "external": {
            "ETHEnabled()": "1162",
            "allowance(address,address)": "infinite",
            "approve(address,uint256)": "22586",
            "balance()": "infinite",
            "balanceOf(address)": "1290",
            "buyBackRouter()": "1127",
            "buyback()": "1094",
            "changeFees(uint256,uint256,uint256)": "61360",
            "changeRouter(address)": "22163",
            "changebuyBackRouter(address)": "22140",
            "decimals()": "289",
            "decreaseAllowance(address,uint256)": "23656",
            "delegatedBuyback()": "1083",
            "deposit(uint256,address)": "infinite",
            "depositAll()": "infinite",
            "emergencyExit(address,uint256)": "infinite",
            "estTokensFromShare(uint256)": "infinite",
            "getBuyBackShares()": "infinite",
            "getPricePerFullShare()": "infinite",
            "handleBuyBack(uint256,uint256)": "infinite",
            "handleBuyBackDirect(uint256)": "infinite",
            "increaseAllowance(address,uint256)": "23618",
            "migrate(address,address,address,uint256)": "infinite",
            "name()": "infinite",
            "owner()": "1099",
            "pause()": "infinite",
            "paused()": "1133",
            "reflection()": "1074",
            "reflectionTransfer()": "1117",
            "renounceOwnership()": "infinite",
            "router()": "1125",
            "scytheToken()": "1082",
            "setDelegate(address)": "22096",
            "setEthEnabled(bool)": "22102",
            "symbol()": "infinite",
            "totalSupply()": "1094",
            "transfer(address,uint256)": "infinite",
            "transferFrom(address,address,uint256)": "infinite",
            "transferOwnership(address)": "infinite",
            "unpause()": "infinite",
            "vault()": "1191",
            "want()": "1083",
            "wantAddress()": "1192",
            "withdraw(uint256,address)": "infinite",
            "withdrawAll(address)": "infinite",
            "withdrawETH(uint256,uint256,address)": "infinite"
        }
    }
}